:03000B0002173F9A
:10173F00C0E0C0F0C083C082C0D075D000C000C070
:10174F0001C002C003C004C005C006C007C28C3070
:10175F0038051214F08004D202D239D007D006D047
:10176F0005D004D003D002D001D000D0D0D082D089
:06177F0083D0F0D0E0323F
:03001B00021000D0
:10100000C0E0C0F0C083C082C0D075D000C000C0B6
:1010100001C002C003C004C005C006C007C28EE5FF
:101020009F5480FFC41313135401600C85F85812A9
:1010300019B743F3F743F2C7121AD430110D121C3B
:10104000E3758DFF758B5BD28E801A758DFC758B69
:1010500024D28E120D1520060C12162612073E12EF
:101060001BC3120BE4E59F5480C413131354017087
:101070000653F30153F201E59F5480C41313135434
:10108000017005439F808003539F7FD007D006D017
:1010900005D004D003D002D001D000D0D0D082D06F
:0610A00083D0F0D0E03225
:1012AD007402254AF54AE43549F549120800121C25
:1012BD00791218CA121B3E43E7C043E70C43F2C034
:1012CD0012194675F10F121C12C28CE58954FC449B
:1012DD0001F589D2A9C28EE58954CF4410F589D282
:1012ED00AB758DFC758B24D28ED2AFE52060FC30B2
:1012FD000503120F1B3000031203FF3006031212F9
:10130D003130010312006E3002031210A6300303B8
:0B131D001216843004D5120E3280D06E
:03006B00021CB3C1
:101CB300C0E0E5A75414600775551EC22AD22DD083
:021CC300E0320D
:101C8D00900070E030E20BE59B20E20343A7044394
:031C9D00A6042278
:1019460043A714900070E0FF20E20330E30FD2BDFE
:10195600EF30E30343A610121C8D755501900070FD
:10196600E030E41443F208900060E054F0FD90008B
:0919760062E0C4540F4DF5FB22A0
:100D1500A2299250900070E030E409E5E1F430E357
:100D250003D38001C39251205128E5AB30E009E59A
:100D35009B5402FF7E008016E5E330E00DE5F9C324
:100D4500942750067E007F0180047E007F00EF4ED1
:100D55006003D38001C39229E556D39400405FE533
:100D6500AB30E00AE5E330E10575561E80653029B4
:100D7500311556AF56EF705BD22C53F1FE30510C46
:100D8500900066E054F0FD900068800A900060E0F5
:100D950054F0FD900062E0C4540F4DF5FB75F10F62
:100DA5008031E5AB30E0047F1E80027F14E556C339
:100DB5009F4007E4F556C22C801905568015A250B0
:100DC500302901B3500DE5AB30E0047F1E80027F72
:100DD500148F56A22A9250900070E0FF30E20AE587
:100DE5009B30E205E5A620E209EF30E308E59B30FC
:100DF500E403D38001C3925120510CEF30E50BE59C
:100E05009B30E006201D03D38001C3922AA25030F7
:100E15002A01B34009E5556013D55510800A3051B4
:0C0E250003302D0475551E22A22A922DC8
:010E3100229E
:07000300E4FF000FBF28FB22
:01000A0022D3
:101CA0008546F2E4F5F175F10F121C8DC206D28C57
:031CB000D28E22AF
:10141400900071E05438F529A3E0FF5410FEC45441
:101424000F24FF924EEF546024E0601224E0600920
:1014340024E0700F7540FA800D7540DC800875401B
:10144400C880037540B4A24C724B503343F23053FE
:10145400E4EF304C1343E480304B0543E40880034D
:1014640053E4F7751801800943E408E4F547751857
:1014740002C248754300754401300603121CA022C1
:0609C4007541007542FAC6
:1009CA0085413E85423FE518B40507AF3FAE3E027A
:0509DA0017CBD2002242
:10139F007F3C7D507C46E51864057035304E117CDE
:1013AF00697D78D374C2954274019541400D804C8C
:1013BF00D3742C9542740195415041E4FFC3ED95D0
:1013CF0042EC95414036ED9542FDEC9541FC0F8086
:1013DF00EC304E0EE542B45823E541B4021E7F2D8A
:1013EF00801AE542B4C209E541B401047F28800C9C
:1013FF00E542B45807E541B402027F1EEF2402F51F
:05140F0030FF021C2863
:101A3E00E545540F701FE544640B454370171214AF
:101A4E00141209C443AB01900071E05407FFE59FE7
:061A5E0054F84FF59F2231
:101134007429D395FC40047F00800D74FAD395FC88
:1011440040047F0180027F027429D395FD40047E10
:1011540000800D74FAD395FD40047E1080027E2039
:10116400EE4207E5456F600AE4F547F5437544012F
:10117400803AE518B4050BD3E54494B0E5439404F0
:101184005010E518B40412D3E5449417E5439400D1
:101194004007E4F543F5448013D3E5449400E54364
:0E11A400940040080544E544700205438F4561
:0111B200221A
:10123100120003121134E54464104543700953E36D
:10124100FD121C8D12139FE54464034543703E1249
:101251001AF8E545B4111874F62FFF74FF3EFED35A
:10126100E5409FE49E504243E30253A6FB8015E50F
:1012710045B42235740A2FFFE43EFEC374589F74AF
:10128100029E40258E418F421209CA801CE545B459
:101291000117C37420954474039543500C751804C9
:0C12A100754300754416121CA0021A3E92
:100BE400303202A107E5E320E002A107121134E547
:100BF4001814601814604014607B14700281A224DD
:100C0400046002A11485F246C2068066204B02A14C
:100C140014E544640345436002A114E545540FC33D
:100C240094024002A114E4F543F54475180253E418
:100C34007FF547F543801AE54464C945436002A142
:100C440014F543F544E547C3940550090547754336
:100C54000075440122304D0FE545B4110A53E47781
:100C640043E41075180322204C02A114E5456002E8
:100C7400A114021414E54464044543701FE545B40B
:100C8400011AE4F543F544F54875303EAF30121CC3
:100C94002853ABFE539FF8751804D2488062E5448C
:100CA40064174543705AF543F544E545B42117C22A
:100CB4008CC28E85F24675F232E4F5F175F1037556
:100CC4001805D206803AE545B41211754101754202
:100CD400C21209CA12139F7548018024E545B41154
:100CE400117541027542581209CA12139F754802C0
:100CF400800EE545B401091209C412139FE4F548B6
:100D0400021A3EE5186009E4F51853F2CF53E4677C
:010D140022BC
:0F1CC500E5E754CF4420F5E77550A27551322260
:0F1CD400E5E754CF4410F5E775506475511922B8
:0A1D270053E7CF75506475510C228C
:101B3E00900070E05403FFBF0207121CC5754E3CA7
:101B4E0022BF0107121CD4754E1E22121D27754E80
:011B5E000A7C
:011B5F002263
:101BFB00EFC3955040047F04800CEFC39551400414
:071C0B007F0280027F01222D
:101C3D00AFFF121BFBEFC454F0FEAFFE121BFBEF08
:041C4D004EF521220D
:0F1CE30085214F121C3DE521654F6002D205227D
:1016260085214F301038E5E730E01BE5C730E70C81
:10163600AFFF121BFBEFC454F0FF80027F20E521B1
:10164600540F4FFF8014E5C730E707AFFE121BFBB0
:1016560080027F02E52154F04FFF8F218003121C88
:101666003DE51F451E600EE51F151F7002151E1471
:0E167600AE1E4E6006E521654F6002D20522D1
:100F1B00E521654F6040301123A209300D01B3501C
:100F2B001BC28E53F1FE53D4FD53D9FE43F10C7506
:100F3B00F10F758DFC758B24D28EC211301102E12D
:100F4B00E0301008751E00751F02E1E0751E00757C
:100F5B001F78D212807F30101EE5E730E004A20E1E
:100F6B008002A20A506FC210121B3E43F2C09000C7
:100F7B0072E030E360803B301240C212A209300DA8
:100F8B0001B35027D210A20C72089218A218921318
:100F9B0030090553E7FE800343E701E5E730E00442
:100FAB007FBF80027F7FEF52F2802A900072E03089
:100FBB00E323751E0B751FB8801BD211C28E53F124
:100FCB00FE53F1F343D90143D40275F10F758DFF35
:080FDB00758B5BD28EC205226A
:10184500E512601614602A24FB60080470337512D3
:1018550006802EE4F512D202802730200FE515B45C
:101865001302D32275120175191B8015751203D346
:1018750022E4F5193021047F0280027F048F12D300
:0318850022C32259
:0A1D3100E512B40503D38001C322BC
:101C5100751205303307121CD475191122121CC5D7
:041C610075190122CE
:091D3B00751524E4F512D2022210
:091D4400751523E4F512D2022208
:0D000E00B23030300443BB022253BBFD2250
:101BA30030480775150475BE0722E515B4100820E3
:101BB3003605121C518003751200751501D20222DD
:1008F00012148450047F0680027F0B8F15D20222CF
:0D1D01007515030557D20275191E021C79D5
:091D4D00751510E4F512D2022212
:091D5600121CF2C20175151922DC
:0F1CF200E4F519F51CF51DF515F51275260322FD
:101BC300E5196005D51902D201E51D451C6010E534
:101BD3001D151D7002151C14AE1C4E7002D201227D
:10006E00301907121D01C21961FC30351475150EB9
:10007E0075191EE4F51CF51D121C79C28CC2356172
:10008E00FCE515B42500400261FC90009E25E0734E
:10009E0001E8210D61FC4138412321622172217E4C
:1000AE00218A415B61FC216621624147413841084A
:1000BE0021DE412E415461E4415441524154415498
:1000CE004154413F219821BB21AF4154216461F934
:1000DE0041544154411661A561D875260320100282
:1000EE0061FCE512B40513121C65121D0E30186466
:1000FE0075150FE4F512D20261FC121C5161FC124F
:10010E0018455045E51224FD603214602D2402601E
:10011E000261FC203310E51154C064407008D236E1
:10012E00852D2E121B3EE51054F0FEE511541FFFD7
:10013E00BE1005BF020241AB61D3413330330261C1
:10014E00D375150575197861FCE4F557D232F51C97
:10015E00F51D61FC615B61F930330261F975150CB7
:10016E00D20061FC302007751507D20061FC61D307
:10017E003021024133751508D20261FC3020097519
:10018E001509D200D23361FC4133302012303108D0
:10019E0075151B75193261FC75151CD20061FC6159
:1001AE00D375151DD202D23143BB0261FCE4F519A1
:1001BE0030211BE51054F0FEE511541F64064E70FD
:1001CE000D75150953E3F3C23153BBFD61FC805528
:1001DE00121845400261FCE51224FD601B146018E4
:1001EE002402600261FCE51054F0FEE511541F6418
:1001FE00034E7002615B802D802B12184540026108
:10020E00FC121CF2D20061FC302008751509120098
:10021E000E61FC61D3E557D39402400261FC800568
:10022E00302002615B121D0161FC75150DD200615B
:10023E00FC121CF243E7C061FC121CF2751C137514
:10024E001D8861FC619E30200261F961D3A221B04C
:10025E0034400261FCE51030E725900021E030E7E4
:10026E001CFE900020E0FDEDFFEE5401FEEF941A0F
:10027E00EE9400400875151575192B61FC619EE50D
:10028E0010547070026120E511541F24FD60132478
:10029E00FE24FD507424F96028240D70731208F0AA
:1002AE0061FCE52B600261FC900023E02480600D70
:1002BE002430600261FC75151ED20261FCD23461DD
:1002CE00FC900021E030E73AE533D394004027302C
:1002DE00360530300261FC900020E054DFFFBF0194
:1002EE0010900022E07003A3E0F4700575152080D5
:1002FE000D751521800830360261FC751514D20279
:10030E0061FC30360261FC619E30360261FC619EFA
:10031E00807EE511541F24FDB413005073900335F5
:10032E0025E0500205837361756175619E6175618B
:10033E005B619E6160619E6167619E616E619E619F
:10034E009E619E618361776199619E6199121BA383
:10035E0061FC751522D20261FC75151AD20261FC80
:10036E00751511D20261FC805C30360261FC751588
:10037E0016D2028079203676E533D3940040047F7E
:10038E001880027F148F15D20280632036608000A1
:10039E00751514D20280571218455052E51224FDDD
:1003AE00602314602024027045E51054F0FEE51120
:1003BE00541FFFEE700DEF24FC6006047005120052
:1003CE000E800C8000121D4D8024121845501F7592
:1003DE001509D200801812184550133020057515D6
:1003EE00098003121D4D121CC58003751509C2012B
:0103FE0022DC
:03006300021888F8
:10188800C0E0C0D075D000C007E5B430E606C22479
:10189800D2038015E5B430E010E5E730E0047F803E
:1018A80080027F40EF42F2D202E5B630E10AE5B4A9
:1018B80030E10553B6FDD20275B441D007D0D0D07F
:0218C800E0320C
:03005B0002132865
:0F132800C0E0C083C082C0D075D000C006C0072F
:10133700E5B330E342E5C4541FFFE5C554F0700B35
:10134700BF0108C28CF5B7D202802CE4FF75B43018
:1013570075B14085B21185B210E5B454307018EFFD
:10136700C3941E5012AE070F74202EF582E434008A
:10137700F583E5B2F080E2E5B330E10CE5BD5470EA
:0B138700FFBF6004D201D23575B30A2D
:0D139200D007D006D0D0D082D083D0E0327A
:101C650075C3C775BB2375BED775B3FF75B4FFD2F2
:041C7500BBD2BC2200
:101C790075BB0175BE0775E648C2BBC2BC75B50A1E
:041C890075B64122C9
:100E3200E5B06440705620391DE5E730E0047E7F5E
:100E420080027EBFEE52F275B430E4F5B775B14060
:100E5200755903755A21E55A155A700215591445E8
:100E620059600EE5B7543FC39422500575B24480D1
:100E7200E520390375B1BF75B244E55A4559700290
:100E8200E118758CFA758ACED28CE118E5B0644807
:100E92007029E5C720E710E4FFE5C720E702E4FF79
:100EA2000FEFC3941440F275B430E4F5B775B14056
:100EB20075B25575B18275B265805BE50F547013DA
:100EC20013543FFEE5C733922230224475B430E416
:100ED200F5B775B140850EB2202303EE700375B1EC
:100EE200A0850FB2E4FFEFC39E5020E5B420E51BBE
:100EF200202308EE14B5070375B18074002FF58224
:100F0200E43400F583E0F5B20F80DB53B1DF8006F5
:080F120043B40243B602C2041D
:010F1A0022B4
:101AB000EF7802CEC313CE13D8F9FFC4540FFEEF54
:101AC000131313541F2EFEEFC4131354032EFEC31F
:031AD000EF9EFF87
:011AD30022F0
:101AF800AFE5EF75F004A4FFAEF0E5E45403FDEFA5
:101B08004DFFC3EE9402400AEF24FFFFEE34FFFEC0
:021B180080004B
:011B1A0022A8
:100A1000900064E0C4540FFFE5A3547FC39FFF22FE
:1017CB00C3EE94024011EF94FFEE94035009EF2403
:1017DB0001FFE43EFE8000AD07AC06ED7802CEC300
:1017EB0013CE13D8F9F5E5ED5403FFE5E454FC4FA4
:0217FB00F5E413
:0117FD0022C9
:101C2800AD07900064E0C4540F2D547FFFE5A35422
:051C3800804FF5A3221E
:10190B00E53FAE3E7802CEC313CE13D8F9FFC41316
:10191B0013135401FEEFC4540FC39EFEC3EF9EFD81
:10192B00E5FAC39D4013EFAF062FFFE433FEADFA8C
:0A193B00D3ED9FE49E50028001C32B
:01194500227F
:101BE300EF25E025E02440F582E43400F583E0FEB0
:071BF300A3E0FAEEFFEAFE99
:011BFA0022C8
:101A6400AF2B121BE3EE5403FE301C06EF547FFF32
:101A74008003121AB0201A08EFD3943D40027F3D30
:051A8400EF70027F0A73
:011A8900223A
:1015C600EFC39407501C8F2BEF25E02460F582E4CF
:1015D6003400F583E05403F53EA3E0F53F121A64A8
:1015E6008F30121AF88E3B8F3CE53FB53C0AE53E3C
:1015F600B53B05E4F5348013D3E53F953CE53E95D0
:101606003B400575340280037534FE120A108F2F95
:10161600E530D39F4003D38001C3921FE4F53D22FA
:101B1B00C3E53464809480500DE558C3940A500398
:101B2B0043E30253A6FBC247D238758CFF758A0676
:031B3B00D28C2227
:10148400900023E05470C4540F14FD900022E0FE39
:10149400900021E0FBEEF535EBF536ED25E025E097
:1014A4002442F582E43400F583E0FEA3E0AA06F5C5
:1014B40083EAFFE583FAEFFBAF05121BE3AB07AA50
:1014C40006E536AE357802CEC313CE13D8F9FFEE57
:1014D4005403FE530203EDC3952E500EC3EB9FEA53
:0B14E4009E4007AF051215C6D322C3BF
:0114EF0022DA
:10001E00302137E51054F0FEE511541F640F7003C4
:10002E00EE64507025900020E054DF6441701BA3F5
:10003E00E030E716A3E07003A3E0F4700D900030FB
:0C004E00E05460FFBF4003D38001C322D8
:10155C00E4FDAF05121BE38E4C8F4DED25E025E02D
:10156C002443F582E43400F583E054F0FF5307C0C4
:10157C00EF6003BF801BE54C5403FED3E54D942C68
:10158C00EE9401400CE54C54FC4401F54C742CF5E4
:10159C004DED25E025E02440F582E43400F583E5AB
:1015AC004DF0E54CFFED25E025E02441F582E434D7
:0915BC0000F583EFF00DBD079965
:0115C5002203
:1007E700900070E020E60343AB01900071E05407EE
:0907F700FFE59F54F84FF59F2225
:10180000900070E05403FB900060E05403FEA3E0FE
:10181000FDAC061207E78C3E8D3FE4F52BAF0512B9
:1018200017CBBB02047F3C8009BB01047F1E8002F2
:101830007F0A121C28900073E0FF139240EFA2E190
:041840009241C242CD
:011844002281
:101A1700751401752C0553E3FE121800E515640DC6
:101A2700600BE51564036005E515B41906751A031F
:071A3700751B2043E30222AE
:1016E200751402E5E3540C601953E3F3E5E330E2C9
:1016F2000353E7BFE5E330E30353E77F63E70143C7
:10170200E702C28C539FF8121C79E4F523AF4E1204
:101712001C28E4FF1215C6854E30C3E5346480945C
:10172200805003302D05121A178003121B1BE5E7A8
:0D17320030E10953E7FD63E70143E7C02202
:1018CA00E4F51475A108F5A175F60543EF0B43ABD2
:1018DA000443EE02121800900072E0FF30E1034365
:1018EA00AB08EF30E20343F608900071E030E703FB
:1018FA0043E310900073E030E20375A62075F3F716
:01190A0022BA
:1014F000E53CB53F08E53BB53E03D38001C39245CB
:1015000020450CE51464026003202C03302D05C235
:1015100038D20022758CFF758A06D28CAF34EF3337
:1015200095E0FEEF253CF53CEE353BF53BD3E5344D
:1015300064809480400DD3E53C953FE53B953E406B
:1015400013800BC3E53C953FE53B953E5006853E39
:0C1550003B853F3CAF3CAE3B1217CB226A
:10073E00E51B451A6010E51B151B7002151A14AE49
:10074E001A4E7002D200120A108F2FE52FB5300309
:10075E00D38001C39246304505304602D24720472A
:10076E000B204608304505AF30121C28E5141460E6
:10077E005024FE601824FB601424FB605B240924C3
:10078E00F5501B240F705130104ED2002212190B4F
:10079E005004D2008008300005121C8DC200A22C1D
:1007AE00A010722DE433FFA21C822FE433FEE51558
:1007BE00B409047D0180027D00ED5E4F601AD20007
:1007CE0022E5F9D394075007E52C7003D20022E5F9
:0907DE002CD394004002152C22DA
:1003FF00E514B410004002E13B90040E25E073E1D8
:10040F0028C1FFC1FA812E81B681DF81DF81DF81B3
:10041F00DF81DF81DF81DF81DFC1F581DFE1212036
:10042F001005E4F514E13BA22D722C5002E13B12B2
:10043F00190B4002E13B900071E030E606C218D282
:10044F001A803E30183BC28E7FAF7E05AD071FED81
:10045F00602D43A720EF30E00853E3F3754B058081
:10046F000FE5E730E00543E304800343E3088E4BD9
:10047F00EF540770010EAD4B154BED60CF80F7D2E7
:10048F008E751404E515B40D02D201751A00751B93
:10049F00C8900071E05407FFE59F54F84FF59F4354
:1004AF00A71443E301E13B30101E202C1B202D1815
:1004BF00301808301810E5A730E50B53E3F343A7C6
:1004CF0020C21812155CC125301017121D56C1F528
:1004DF00301009202D06302C0B203208301003125B
:1004EF001D56C1F5302C0975140DD201D219E13BFF
:1004FF00E5157002C13724FC604224FD605924FECB
:10050F007002C14924FD7002C12024F06008240F3D
:10051F006002E13BC1F5E51424F5601E240660027C
:10052F00E13B75140BE5E730E00543E3048003433B
:10053F00E308751A00751B05E13BC125E51424F985
:10054F00600D24026002E13B7FFF1215C6805275D9
:10055F00140553E3FDE138E51424FBB40700400212
:10056F00E13B90057B25E05002058373A189A1B083
:10057F00A1B8A1DDA1F2C100C10530431975140A5C
:10058F00121B1B301B067E017F0480047E007F1729
:10059F008E1A8F1BE13B751406751A00751B1EE131
:1005AF003B751407121B1BE13BE5AB20E00A201C37
:1005BF0012900070E020E60B751408751A01751B78
:1005CF002CE13B75140B751A00751BE6E13BE5E357
:1005DF0030E10B751409751A00751B14E13B751486
:1005EF000B800675140B53E3FD751A00751B0AE19A
:1005FF003B75140BE13B751405301C0853ABFE53D0
:10060F009FF880031207E7121C8D53E3FDD201E11F
:10061F003BE514B40C07751405D201E13B75140CBE
:10062F00751A01751B90E13B12001E5004D21A80FF
:10063F000312155CC218D201E13B204102C1DC302C
:10064F004204C241C1DCE514B4050875140E121D35
:10065F003B807A30215BE5105480FEE511541F6416
:10066F000F4E704D900020E054DF64417043A3E0C3
:10067F0030E73E900024E064AC7004A3E0640570A2
:10068F0030752E02750C00750D44750A00750B58E8
:10069F007F04121B8290006CE0540FFEA3E0FF90CA
:1006AF000062E054F04EFE900062EEF0A3EFF08097
:1006BF0014303605852D2E800385322EE52ED394EA
:1006CF00064002152ED242121BA3751405204108B5
:1006DF00304005121D44C24020415120404E20366B
:1006EF004B121CC580461216E28041121A17803C2D
:1006FF0053E3FD53F2F9C201E51524F3600724F427
:10070F00700853E73F75140F8022E4F514121CF2A2
:10071F00801AE4F514D2018013301010A21392182E
:0E072F0075140343F2071211B3121C8DC200A1
:01073D002299
:0D1D0E00E4F524F516F5177554FFF5532282
:10197F00430E0FED420F900000EFF03036047E80E3
:10198F0080027EA0900001EEF0A3E4F0A374FFF0BC
:10199F00EF64016012203608900021E05460700758
:0819AF00900001E054DFF0227A
:100FE300900000EFF0A3EDF0AF031BEF600E74026F
:0D0FF3002BF582E43400F583E4F080EC225D
:100A4A0075160275B0393036047F4080027F808F78
:100A5A000E303003430E20E55325E04401F50FE53F
:100A6A0015121A8A0B5E010B89030ABB060AB6081D
:100A7A000AC00B0B4C0F0AB1100ABB110AC0120AAA
:100A8A00C5130ADB140AE9160B0E180ABB1A0AB6B2
:100A9A001D0B801E0B8E200BBF210ABB220BCE23FF
:100AAA000BC52400000BD1430E0D61D1430E066124
:100ABA00D1430E0361D1430E0461D1430E06430FA5
:100ACA00107B04E4FDFF120FE39000037410F06141
:100ADA00D13036047F0480027F10EF420E61D14389
:100AEA000E02430FA07B067D807F05120FE3900064
:100AFA00037402F0302E047F1080027F00900005FC
:100B0A00EFF061D1430E01430FF07B1A7D807F180D
:100B1A00120FE3750C00750D02853908853A097FB5
:100B2A000C121B6090000CE0FFA3E0900004CFF0D1
:100B3A00A3EFF0E490000CF0A3F0900019E531F077
:100B4A0061D175B03A7D107F0112197F530FFE53A0
:100B5A000EDF8073430E01E52EC454F0420F750C6C
:100B6A0000750D00750A00750B40E52E25E025E09D
:100B7A00FF121B828051C238C23975B04080487555
:100B8A00B0488043E53304C454F0FD7F4112197F15
:100B9A00750C00750D04853908853A09E53325E099
:100BAA0025E0FF121B6020361E9000067480F0A319
:100BBA007401F080127D107F8180047D107F011204
:100BCA00197F8003430E09C223D204E5B054306072
:0A0BDA00047F0380027F048F1622BF
:1019EA007516083036047F0380027F02E552C39FD2
:1019FA00400F7516090553535307D201E4F51680B3
:0C1A0A0009D223D2040552751603C22035
:011A160022AD
:1010A600E51624FD604A14602A1460552405707BF9
:1010B600E4F552C220E515B4100B751601E4F5539C
:1010C6007554FFF517121D315004D201805D120AC6
:1010D6004A8058E515B41E16D3E55A9400E559948E
:1010E600004004D2048044E4F516D201803D8033EA
:1010F600C238C239758CFC758A9AD28C75160580F1
:101106002A203924202202801F751606E5C5C3133E
:101116005407B553137516070553535307D201D217
:0E11260020C221E4F51680031219EAC202224B
:10168400E51714603114603114603114604024048F
:101694007049E5BD5470FFBF2006E515640F703B2B
:1016A400E51054F0FEE511541F640D4E70087517D3
:1016B40001F5537554FF751702751703E510C3132D
:1016C4005407FDB55405E4F51780107517048D54BF
:0D16D400E4F516F517D221C220D201C203A1
:0116E10022E6
:100920004359323331364341563130302E3035362B
:101B8200AE071FEE601AE50B2FF582E4350AF583E6
:101B9200E0FEE50D2FF582E4350CF583EEF080E0F2
:011BA2002220
:101B6000AE071FEE601BE5092FF582E43508F5830B
:101B7000E493FEE50D2FF582E4350CF583EEF0805D
:021B8000DF2262
:02178500A905B4
:10178700E4FEEEC3995026E4FDEDC39F501FE50923
:101797002DF582E43508F583E493B4FF030D80E962
:1017A700EF2509F509E43508F5080E80D5EFFDC3E7
:1017B700E49DFDE49400FCED2509F509EC3508F5F9
:0317C70008AF0662
:0117CA0022FC
:1011B300E5384537605F90006AE054F0FD90006CBD
:1011C300E0C4540F4DF531750C00750D408537089B
:1011D3008538097F1C121B607D077F041217858FDA
:1011E3003285322EE4F52DFFEFC3952E501C75F09A
:1011F30004EFA42443F582E5F03400F583E0C4133F
:101203001354037005052D0F80DE900073E030E169
:101213001C752E0122752E01752D01900040742C32
:0D122300F0A37491F0A37401F0A3740AF01D
:01123000229B
:100800007508097509407D067F05121785EF60366A
:10081000850982850883E493F5E985098285088343
:10082000740193F5EA850982850883740293F5EBD8
:10083000850982850883740393F5EC850982850810
:1008400083740493F5ED75080A7509207D037F0E06
:10085000121785EF600D750C00750D607F0E121B71
:1008600060800A9000607410F0A374FAF0750809B3
:100870007509707D037F1C121785EF6008850837A6
:100880008509388005E4F537F5381211B375080984
:100890007509607D037F04121785EF600D750C00EC
:1008A000750D707F04121B60800F9000707401F052
:1008B000A37408F0E4A3F0A3F07508097509E07DBE
:1008C000037F10121785EF601F85098285088374E6
:1008D0000193FFE4934F601085083985093A7D0440
:1008E0007F041217858F3322E4F539F53AF5332268
:101C120043AE0175A43B43AC0A43AD0A43F6D0433D
:061C2200EE0143F2012275
:101AD400E5F630E41EE5AF20E30D90001EE0D3945C
:101AE40001501075A5192290001FE06006E4F5A4CA
:041AF40075A43B2278
:1019B700E558D39407501690001FE004F0E0B405F3
:1019C7000643F6107401F0E490001EF02290001E0A
:1019D700E004F0E0B4500653F6EF7402F0E4900030
:0319E7001FF022CC
:03000000021D1BC3
:0C1D1B00787FE4F6D8FD75815A0212AD05
:101A8A00D083D082F8E4937012740193700DA3A3EB
:101A9A0093F8740193F5828883E4737402936860FF
:061AAA00EFA3A3A380DFFF
:00000001FF
