:03000B00021738A1
:10173800C0E0C0F0C083C082C0D075D000C000C077
:1017480001C002C003C004C005C006C007C28C3077
:1017580038051214E98004D202D239D007D006D055
:1017680005D004D003D002D001D000D0D0D082D090
:0617780083D0F0D0E03246
:03001B00021000D0
:10100000C0E0C0F0C083C082C0D075D000C000C0B6
:1010100001C002C003C004C005C006C007C28EE5FF
:101020009F5480FFC41313135401600C85F85712AA
:1010300019AF43F3F743F2C7121ACC30110D121C4B
:10104000DB758DFF758B5BD28E801A758DFC758B71
:1010500024D28E120D1520060C12161F12073E12F6
:101060001BBB120BE4E59F5480C41313135401708F
:101070000653F30153F201E59F5480C41313135434
:10108000017005439F808003539F7FD007D006D017
:1010900005D004D003D002D001D000D0D0D082D06F
:0610A00083D0F0D0E03225
:10139900054D054D120800121C711218CA121B3690
:1013A90043E7C043E70C43F2C012190B75F10F1262
:1013B9001C0AC28CE58954FC4401F589D2A9C28E64
:1013C900E58954CF4410F589D2AB758DFC758B2412
:1013D900D28ED2AFE52060FC300503120F1B30001E
:1013E900031203FF30060312123130010312006E9B
:1013F9003002031210A630030312167D3004D512F1
:041409000E3280D04F
:03006B00021CABC9
:101CAB00C0E0E5A75414600775541EC22AD22DD08C
:021CBB00E03215
:101C8500900070E030E20BE59B20E20343A704439C
:031C9500A6042280
:10190B0043A714900070E0FF20E20330E30FD2BD39
:10191B00EF30E30343A610121C8575540190007041
:10192B00E030E41443F208900060E054F0FD9000C6
:09193B0062E0C4540F4DF5FB22DB
:100D1500A2299250900070E030E409E5E1F430E357
:100D250003D38001C39251205128E5AB30E009E59A
:100D35009B5402FF7E008016E5E330E00DE5F9C324
:100D4500942750067E007F0180047E007F00EF4ED1
:100D55006003D38001C39229E555D39400405FE534
:100D6500AB30E00AE5E330E10575551E80653029B5
:100D7500311555AF55EF705BD22C53F1FE30510C48
:100D8500900066E054F0FD900068800A900060E0F5
:100D950054F0FD900062E0C4540F4DF5FB75F10F62
:100DA5008031E5AB30E0047F1E80027F14E555C33A
:100DB5009F4007E4F555C22C801905558015A250B2
:100DC500302901B3500DE5AB30E0047F1E80027F72
:100DD500148F55A22A9250900070E0FF30E20AE588
:100DE5009B30E205E5A620E209EF30E308E59B30FC
:100DF500E403D38001C3925120510CEF30E50BE59C
:100E05009B30E006201D03D38001C3922AA25030F7
:100E15002A01B34009E5546013D55410800A3051B6
:0C0E250003302D0475541E22A22A922DC9
:010E3100229E
:07000300E4FF000FBF28FB22
:01000A0022D3
:101C98008546F2E4F5F175F10F121C85C206D28C67
:031CA800D28E22B7
:10140D00900071E05438F529A3E0FF5410FEC45448
:10141D000F24FF924EEF546024E0601224E0600927
:10142D0024E0700F7540FA800D7540DC8008754022
:10143D00C880037540B4A24C724B503343F2305305
:10144D00E4EF304C1343E480304B0543E408800354
:10145D0053E4F7751801800943E408E4F54775185E
:10146D0002C248754300754401300603121C9822D0
:0609C4007541007542FAC6
:1009CA0085413E85423FE518B40507AF3FAE3E027A
:0509DA00197CD200228F
:101324007F3C7D507C46E51864057035304E117C59
:10133400697D78D374C2954274019541400D804C07
:10134400D3742C9542740195415041E4FFC3ED954B
:1013540042EC95414036ED9542FDEC9541FC0F8001
:10136400EC304E0EE542B45823E541B4021E7F2D05
:10137400801AE542B4C209E541B401047F28800C17
:10138400E542B45807E541B402027F1EEF2402F59A
:0513940030FF021C20E7
:101A3600E545540F701FE544640B454370171214B7
:101A46000D1209C443AB01900071E05407FFE59FF6
:061A560054F84FF59F2239
:101134007429D395FC40047F00800D74FAD395FC88
:1011440040047F0180027F027429D395FD40047E10
:1011540000800D74FAD395FD40047E1080027E2039
:10116400EE4207E5456F600AE4F547F5437544012F
:10117400803AE518B4050BD3E54494B0E5439404F0
:101184005010E518B40412D3E5449417E5439400D1
:101194004007E4F543F5448013D3E5449400E54364
:0E11A400940040080544E544700205438F4561
:0111B200221A
:10123100120003121134E54464104543700953E36D
:10124100FD121C85121324E54464034543703E12CC
:101251001AF0E545B4111874F62FFF74FF3EFED362
:10126100E5409FE49E504243E30253A6FB8015E50F
:1012710045B42235740A2FFFE43EFEC374589F74AF
:10128100029E40258E418F421209CA801CE545B459
:101291000117C37420954474039543500C751804C9
:0C12A100754300754416121C98021A36A2
:100BE400303202A107E5E320E002A107121134E547
:100BF4001814601814604014607B14700281A224DD
:100C0400046002A11485F246C2068066204B02A14C
:100C140014E544640345436002A114E545540FC33D
:100C240094024002A114E4F543F54475180253E418
:100C34007FF547F543801AE54464C945436002A142
:100C440014F543F544E547C3940550090547754336
:100C54000075440122304D0FE545B4110A53E47781
:100C640043E41075180322204C02A114E5456002E8
:100C7400A11402140DE54464044543701FE545B412
:100C8400011AE4F543F544F54875303EAF30121CC3
:100C94002053ABFE539FF8751804D2488062E54494
:100CA40064174543705AF543F544E545B42117C22A
:100CB4008CC28E85F24675F232E4F5F175F1037556
:100CC4001805D206803AE545B41211754101754202
:100CD400C21209CA1213247548018024E545B411CF
:100CE400117541027542581209CA1213247548023B
:100CF400800EE545B401091209C4121324E4F54831
:100D0400021A36E5186009E4F51853F2CF53E46784
:010D140022BC
:0F1CBD00E5E754CF4420F5E7754BA2754C322272
:0F1CCC00E5E754CF4410F5E7754B64754C1922CA
:0A1D1F0053E7CF754B64754C0C229E
:101B3600900070E05403FFBF0207121CBD75493CBC
:101B460022BF0107121CCC75491E22121D1F7549A2
:011B56000A84
:011B5700226B
:101BF300EFC3954B40047F04800CEFC3954C400426
:071C03007F0280027F012235
:101C3500AFFF121BF3EFC454F0FEAFFE121BF3EF20
:041C45004EF5212215
:0F1CDB0085214A121C35E521654A6002D2052297
:10161F0085214A301038E5E730E01BE5C730E70C8D
:10162F00AFFF121BF3EFC454F0FF80027F20E521C0
:10163F00540F4FFF8014E5C730E707AFFE121BF3BF
:10164F0080027F02E52154F04FFF8F218003121C8F
:10165F0035E51F451E600EE51F151F7002151E1480
:0E166F00AE1E4E6006E521654A6002D20522DD
:100F1B00E521654A6040301123A209300D01B35021
:100F2B001BC28E53F1FE53D4FD53D9FE43F10C7506
:100F3B00F10F758DFC758B24D28EC211301102E12D
:100F4B00E0301008751E00751F02E1E0751E00757C
:100F5B001F78D212807F30101EE5E730E004A20E1E
:100F6B008002A20A506FC210121B3643F2C09000CF
:100F7B0072E030E360803B301240C212A209300DA8
:100F8B0001B35027D210A20C72089218A218921318
:100F9B0030090553E7FE800343E701E5E730E00442
:100FAB007FBF80027F7FEF52F2802A900072E03089
:100FBB00E323751E0B751FB8801BD211C28E53F124
:100FCB00FE53F1F343D90143D40275F10F758DFF35
:080FDB00758B5BD28EC205226A
:10184500E512601614602A24FB60080470337512D3
:1018550006802EE4F512D202802730200FE515B45C
:101865001302D32275120175191B8015751203D346
:1018750022E4F5193021047F0280027F048F12D300
:0318850022C32259
:0A1D2900E512B40503D38001C322C4
:101C4900751205303307121CCC75191122121CBDEF
:041C590075190122D6
:091D3300751524E4F512D2022218
:091D3C00751523E4F512D2022210
:0D000E00B23030300443BB022253BBFD2250
:101B9B0030480775150475BE0722E515B4100820EB
:101BAB003605121C498003751200751501D20222ED
:1008F00012147D50047F0680027F0B8F15D20222D6
:0D1CF9007515030556D20275191E021C71E7
:091D4500751510E4F512D202221A
:091D4E00121CEAC20175151922EC
:0F1CEA00E4F519F51CF51DF515F5127526032205
:101BBB00E5196005D51902D201E51D451C6010E53C
:101BCB001D151D7002151C14AE1C4E7002D2012285
:10006E00301907121CF9C21961FC30351475150EC2
:10007E0075191EE4F51CF51D121C71C28CC235617A
:10008E00FCE515B42500400261FC90009E25E0734E
:10009E0001E8210D61FC4138412321622172217E4C
:1000AE00218A415B61FC216621624147413841084A
:1000BE0021DE412E415461E4415441524154415498
:1000CE004154413F219821BB21AF4154216461F934
:1000DE0041544154411661A561D875260320100282
:1000EE0061FCE512B40513121C5D121D0630186476
:1000FE0075150FE4F512D20261FC121C4961FC1257
:10010E0018455045E51224FD603214602D2402601E
:10011E000261FC203310E51154C064407008D236E1
:10012E00852D2E121B36E51054F0FEE511541FFFDF
:10013E00BE1005BF020241AB61D3413330330261C1
:10014E00D375150575197861FCE4F556D232F51C98
:10015E00F51D61FC615B61F930330261F975150CB7
:10016E00D20061FC302007751507D20061FC61D307
:10017E003021024133751508D20261FC3020097519
:10018E001509D200D23361FC4133302012303108D0
:10019E0075151B75193261FC75151CD20061FC6159
:1001AE00D375151DD202D23143BB0261FCE4F519A1
:1001BE0030211BE51054F0FEE511541F64064E70FD
:1001CE000D75150953E3F3C23153BBFD61FC805528
:1001DE00121845400261FCE51224FD601B146018E4
:1001EE002402600261FCE51054F0FEE511541F6418
:1001FE00034E7002615B802D802B12184540026108
:10020E00FC121CEAD20061FC3020087515091200A0
:10021E000E61FC61D3E556D39402400261FC800569
:10022E00302002615B121CF961FC75150DD2006164
:10023E00FC121CEA43E7C061FC121CEA751C137524
:10024E001D8861FC619E30200261F961D3A221B04C
:10025E0034400261FCE51030E725900021E030E7E4
:10026E001CFE900020E0FDEDFFEE5401FEEF941A0F
:10027E00EE9400400875151575192B61FC619EE50D
:10028E0010547070026120E511541F24FD60132478
:10029E00FE24FD507424F96028240D70731208F0AA
:1002AE0061FCE52B600261FC900023E02480600D70
:1002BE002430600261FC75151ED20261FCD23461DD
:1002CE00FC900021E030E73AE533D394004027302C
:1002DE00360530300261FC900020E054DFFFBF0194
:1002EE0010900022E07003A3E0F4700575152080D5
:1002FE000D751521800830360261FC751514D20279
:10030E0061FC30360261FC619E30360261FC619EFA
:10031E00807EE511541F24FDB413005073900335F5
:10032E0025E0500205837361756175619E6175618B
:10033E005B619E6160619E6167619E616E619E619F
:10034E009E619E618361776199619E6199121B9B8B
:10035E0061FC751522D20261FC75151AD20261FC80
:10036E00751511D20261FC805C30360261FC751588
:10037E0016D2028079203676E533D3940040047F7E
:10038E001880027F148F15D20280632036608000A1
:10039E00751514D20280571218455052E51224FDDD
:1003AE00602314602024027045E51054F0FEE51120
:1003BE00541FFFEE700DEF24FC6006047005120052
:1003CE000E800C8000121D458024121845501F759A
:1003DE001509D200801812184550133020057515D6
:1003EE00098003121D45121CBD8003751509C2013B
:0103FE0022DC
:03006300021888F8
:10188800C0E0C0D075D000C007E5B430E606C22479
:10189800D2038015E5B430E010E5E730E0047F803E
:1018A80080027F40EF42F2D202E5B630E10AE5B4A9
:1018B80030E10553B6FDD20275B441D007D0D0D07F
:0218C800E0320C
:03005B000212ADE1
:0F12AD00C0E0C083C082C0D075D000C006C007AB
:1012BC00E5B330E342E5C4541FFFE5C554F0700BB1
:1012CC00BF0108C28CF5B7D202802CE4FF75B43094
:1012DC0075B14085B21185B210E5B454307018EF79
:1012EC00C3941E5012AE070F74202EF582E4340006
:1012FC00F583E5B2F080E2E5B330E10CE5BD547066
:0B130C00FFBF6004D201D23575B30AA8
:0D131700D007D006D0D0D082D083D0E032F5
:101C5D0075C3C775BB2375BED775B3FF75B4FFD2FA
:041C6D00BBD2BC2208
:101C710075BB0175BE0775E648C2BBC2BC75B50A26
:041C810075B64122D1
:100E3200E5B06440705620391DE5E730E0047E7F5E
:100E420080027EBFEE52F275B430E4F5B775B14060
:100E5200755803755921E5591559700215581445ED
:100E620058600EE5B7543FC39422500575B24480D2
:100E7200E520390375B1BF75B244E5594558700292
:100E8200E118758CFA758ACED28CE118E5B0644807
:100E92007029E5C720E710E4FFE5C720E702E4FF79
:100EA2000FEFC3941440F275B430E4F5B775B14056
:100EB20075B25575B18275B265805BE50F547013DA
:100EC20013543FFEE5C733922230224475B430E416
:100ED200F5B775B140850EB2202303EE700375B1EC
:100EE200A0850FB2E4FFEFC39E5020E5B420E51BBE
:100EF200202308EE14B5070375B18074002FF58224
:100F0200E43400F583E0F5B20F80DB53B1DF8006F5
:080F120043B40243B602C2041D
:010F1A0022B4
:101AA800EF7802CEC313CE13D8F9FFC4540FFEEF5C
:101AB800131313541F2EFEEFC4131354032EFEC327
:031AC800EF9EFF8F
:011ACB0022F8
:101AF000AFE5EF75F004A4FFAEF0E5E45403FDEFAD
:101B00004DFFC3EE9402400AEF24FFFFEE34FFFEC8
:021B1000800053
:011B120022B0
:100A1000900064E0C4540FFFE5A3547FC39FFF22FE
:10197C00C3EE94024011EF94FFEE94035009EF2450
:10198C0001FFE43EFE8000AD07AC06ED7802CEC34D
:10199C0013CE13D8F9F5E5ED5403FFE5E454FC4FF1
:0219AC00F5E460
:0119AE002216
:101C2000AD07900064E0C4540F2D547FFFE5A3542A
:051C3000804FF5A32226
:1017C400E53FAE3E7802CEC313CE13D8F9FFC4135F
:1017D40013135401FEEFC4540FC39EFEC3EF9EFDCA
:1017E400E5FAC39D4013EFAF062FFFE433FEADFAD5
:0A17F400D3ED9FE49E50028001C374
:0117FE0022C8
:101BDB00EF25E025E02440F582E43400F583E0FEB8
:071BEB00A3E0FAEEFFEAFEA1
:011BF20022D0
:101A5C00AF2B121BDBEE5403FE301C06EF547FFF42
:101A6C008003121AA8201A08EFD3943D40027F3D40
:051A7C00EF70027F0A7B
:011A81002242
:1015BF00EFC39407501C8F2BEF25E02460F582E4D6
:1015CF003400F583E05403F53EA3E0F53F121A5CB7
:1015DF008F30121AF08E3B8F3CE53FB53C0AE53E4B
:1015EF00B53B05E4F5348013D3E53F953CE53E95D7
:1015FF003B400575340280037534FE120A108F2F9D
:10160F00E530D39F4003D38001C3921FE4F53D2201
:101B1300C3E53464809480500DE557C3940A5003A1
:101B230043E30253A6FBC247D238758CFF758A067E
:031B3300D28C222F
:10147D00900023E05470C4540F14FD900022E0FE40
:10148D00900021E0FBEEF535EBF536ED25E025E09E
:10149D002442F582E43400F583E0FEA3E0AA06F5CC
:1014AD0083EAFFE583FAEFFBAF05121BDBAB07AA5F
:1014BD0006E536AE357802CEC313CE13D8F9FFEE5E
:1014CD005403FE530203EDC3952E500EC3EB9FEA5A
:0B14DD009E4007AF051215BFD322C3CD
:0114E80022E1
:10001E00302137E51054F0FEE511541F640F7003C4
:10002E00EE64507025900020E054DF6441701BA3F5
:10003E00E030E716A3E07003A3E0F4700D900030FB
:0C004E00E05460FFBF4003D38001C322D8
:10155500E4FDAF05121BDB8E4F8F50ED25E025E036
:101565002443F582E43400F583E054F0FF5307C0CB
:10157500EF6003BF801BE54F5403FED3E550942C69
:10158500EE9401400CE54F54FC4401F54F742CF5E5
:1015950050ED25E025E02440F582E43400F583E5AF
:1015A50050F0E54FFFED25E025E02441F582E434D8
:0915B50000F583EFF00DBD07996C
:0115BE00220A
:1007E700900070E020E60343AB01900071E05407EE
:0907F700FFE59F54F84FF59F2225
:10180000900070E05403FB900060E05403FEA3E0FE
:10181000FDAC061207E78C3E8D3FE4F52BAF0512B9
:10182000197CBB02047F3C8009BB01047F1E80023F
:101830007F0A121C20900073E0FF139240EFA2E198
:041840009241C242CD
:011844002281
:101A0F00751401752C0553E3FE121800E515640DCE
:101A1F00600BE51564036005E515B41906751A0327
:071A2F00751B2043E30222B6
:1016DB00751402E5E3540C601953E3F3E5E330E2D0
:1016EB000353E7BFE5E330E30353E77F63E70143CE
:1016FB00E702C28C539FF8121C71E4F523AF491219
:10170B001C20E4FF1215BF854930C3E53464809477
:10171B00805003302D05121A0F8003121B13E5E7BF
:0D172B0030E10953E7FD63E70143E7C02209
:1018CA00E4F51475A108F5A175F60543EF0B43ABD2
:1018DA000443EE02121800900072E0FF30E1034365
:1018EA00AB08EF30E20343F608900071E030E703FB
:1018FA0043E310900073E030E20375A62075F3F716
:01190A0022BA
:1014E900E53CB53F08E53BB53E03D38001C39245D2
:1014F90020450CE51464026003202C03302D05C23D
:1015090038D20022758CFF758A06D28CAF34EF333E
:1015190095E0FEEF253CF53CEE353BF53BD3E53454
:1015290064809480400DD3E53C953FE53B953E4072
:1015390013800BC3E53C953FE53B953E5006853E40
:0C1549003B853F3CAF3CAE3B12197C22BE
:10073E00E51B451A6010E51B151B7002151A14AE49
:10074E001A4E7002D200120A108F2FE52FB5300309
:10075E00D38001C39246304505304602D24720472A
:10076E000B204608304505AF30121C20E5141460EE
:10077E005024FE601824FB601424FB605B240924C3
:10078E00F5501B240F705130104ED200221217C498
:10079E005004D2008008300005121C85C200A22C25
:1007AE00A010722DE433FFA21C822FE433FEE51558
:1007BE00B409047D0180027D00ED5E4F601AD20007
:1007CE0022E5F9D394075007E52C7003D20022E5F9
:0907DE002CD394004002152C22DA
:1003FF00E514B410004002E13B90040E25E073E1D8
:10040F0028C1FFC1FA812E81B681DF81DF81DF81B3
:10041F00DF81DF81DF81DF81DFC1F581DFE1212036
:10042F001005E4F514E13BA22D722C5002E13B12B2
:10043F0017C44002E13B900071E030E606C218D2CB
:10044F001A803E30183BC28E7FAF7E05AD071FED81
:10045F00602D43A720EF30E00853E3F3754E05807E
:10046F000FE5E730E00543E304800343E3088E4ED6
:10047F00EF540770010EAD4E154EED60CF80F7D2E1
:10048F008E751404E515B40D02D201751A00751B93
:10049F00C8900071E05407FFE59F54F84FF59F4354
:1004AF00A71443E301E13B30101E202C1B202D1815
:1004BF00301808301810E5A730E50B53E3F343A7C6
:1004CF0020C218121555C125301017121D4EC1F537
:1004DF00301009202D06302C0B203208301003125B
:1004EF001D4EC1F5302C0975140DD201D219E13B07
:1004FF00E5157002C13724FC604224FD605924FECB
:10050F007002C14924FD7002C12024F06008240F3D
:10051F006002E13BC1F5E51424F5601E240660027C
:10052F00E13B75140BE5E730E00543E3048003433B
:10053F00E308751A00751B05E13BC125E51424F985
:10054F00600D24026002E13B7FFF1215BF805275E0
:10055F00140553E3FDE138E51424FBB40700400212
:10056F00E13B90057B25E05002058373A189A1B083
:10057F00A1B8A1DDA1F2C100C10530431975140A5C
:10058F00121B13301B067E017F0480047E007F1731
:10059F008E1A8F1BE13B751406751A00751B1EE131
:1005AF003B751407121B13E13BE5AB20E00A201C3F
:1005BF0012900070E020E60B751408751A01751B78
:1005CF002CE13B75140B751A00751BE6E13BE5E357
:1005DF0030E10B751409751A00751B14E13B751486
:1005EF000B800675140B53E3FD751A00751B0AE19A
:1005FF003B75140BE13B751405301C0853ABFE53D0
:10060F009FF880031207E7121C8553E3FDD201E127
:10061F003BE514B40C07751405D201E13B75140CBE
:10062F00751A01751B90E13B12001E5004D21A80FF
:10063F0003121555C218D201E13B204102C1DC3033
:10064F004204C241C1DCE514B4050875140E121D35
:10065F0033807A30215BE5105480FEE511541F641E
:10066F000F4E704D900020E054DF64417043A3E0C3
:10067F0030E73E900024E064AC7004A3E0640570A2
:10068F0030752E02750C00750D44750A00750B58E8
:10069F007F04121B7A90006CE0540FFEA3E0FF90D2
:1006AF000062E054F04EFE900062EEF0A3EFF08097
:1006BF0014303605852D2E800385322EE52ED394EA
:1006CF00064002152ED242121B9B751405204108BD
:1006DF00304005121D3CC24020415120404E203673
:1006EF004B121CBD80461216DB8041121A0F803C44
:1006FF0053E3FD53F2F9C201E51524F3600724F427
:10070F00700853E73F75140F8022E4F514121CEAAA
:10071F00801AE4F514D2018013301010A21392182E
:0E072F0075140343F2071211B3121C85C200A9
:01073D002299
:0D1D0600E4F524F516F5177553FFF552228C
:10194400430E0FED420F900000EFF03036047E801E
:1019540080027EA0900001EEF0A3E4F0A374FFF0F7
:10196400EF64016012203608900021E05460700793
:08197400900001E054DFF022B5
:100FE300900000EFF0A3EDF0AF031BEF600E74026F
:0D0FF3002BF582E43400F583E4F080EC225D
:100A4A0075160275B0393036047F4080027F808F78
:100A5A000E303003430E20E55225E04401F50FE540
:100A6A0015121A820B5E010B89030ABB060AB60825
:100A7A000AC00B0B4C0F0AB1100ABB110AC0120AAA
:100A8A00C5130ADB140AE9160B0E180ABB1A0AB6B2
:100A9A001D0B801E0B8E200BBF210ABB220BCE23FF
:100AAA000BC52400000BD1430E0D61D1430E066124
:100ABA00D1430E0361D1430E0461D1430E06430FA5
:100ACA00107B04E4FDFF120FE39000037410F06141
:100ADA00D13036047F0480027F10EF420E61D14389
:100AEA000E02430FA07B067D807F05120FE3900064
:100AFA00037402F0302E047F1080027F00900005FC
:100B0A00EFF061D1430E01430FF07B1A7D807F180D
:100B1A00120FE3750C00750D02853908853A097FB5
:100B2A000C121B5890000CE0FFA3E0900004CFF0D9
:100B3A00A3EFF0E490000CF0A3F0900019E531F077
:100B4A0061D175B03A7D107F01121944530FFE53DB
:100B5A000EDF8073430E01E52EC454F0420F750C6C
:100B6A0000750D00750A00750B40E52E25E025E09D
:100B7A00FF121B7A8051C238C23975B0408048755D
:100B8A00B0488043E53304C454F0FD7F4112194450
:100B9A00750C00750D04853908853A09E53325E099
:100BAA0025E0FF121B5820361E9000067480F0A321
:100BBA007401F080127D107F8180047D107F011204
:100BCA0019448003430E09C223D204E5B0543060AD
:0A0BDA00047F0380027F048F1622BF
:1019E2007516083036047F0380027F02E551C39FDB
:1019F200400F7516090552535207D201E4F51680BD
:0C1A020009D223D2040551751603C2203E
:011A0E0022B5
:1010A600E51624FD604A14602A1460552405707BF9
:1010B600E4F551C220E515B4100B751601E4F5529E
:1010C6007553FFF517121D295004D201805D120ACF
:1010D6004A8058E515B41E16D3E5599400E5589490
:1010E600004004D2048044E4F516D201803D8033EA
:1010F600C238C239758CFC758A9AD28C75160580F1
:101106002A203924202202801F751606E5C5C3133E
:101116005407B552137516070552535207D201D21A
:0E11260020C221E4F51680031219E2C2022253
:10167D00E517146031146031146031146040240496
:10168D007049E5BD5470FFBF2006E515640F703B32
:10169D00E51054F0FEE511541F640D4E70087517DA
:1016AD0001F5527553FF751702751703E510C31336
:1016BD005407FDB55305E4F51780107517048D53C8
:0D16CD00E4F516F517D221C220D201C203A8
:0116DA0022ED
:100920004359323331364341563130302E3035362B
:101B7A00AE071FEE601AE50B2FF582E4350AF583EE
:101B8A00E0FEE50D2FF582E4350CF583EEF080E0FA
:011B9A002228
:101B5800AE071FEE601BE5092FF582E43508F58313
:101B6800E493FEE50D2FF582E4350CF583EEF08065
:021B7800DF226A
:02177E00A905BB
:10178000E4FEEEC3995026E4FDEDC39F501FE5092A
:101790002DF582E43508F583E493B4FF030D80E969
:1017A000EF2509F509E43508F5080E80D5EFFDC3EE
:1017B000E49DFDE49400FCED2509F509EC3508F500
:0317C00008AF0669
:0117C3002203
:1011B300E5384537605F90006AE054F0FD90006CBD
:1011C300E0C4540F4DF531750C00750D408537089B
:1011D3008538097F1C121B587D077F0412177E8FE9
:1011E3003285322EE4F52DFFEFC3952E501C75F09A
:1011F30004EFA42443F582E5F03400F583E0C4133F
:101203001354037005052D0F80DE900073E030E169
:101213001C752E0122752E01752D01900040742C32
:0D122300F0A37491F0A37401F0A3740AF01D
:01123000229B
:100800007508097509407D067F0512177EEF603671
:10081000850982850883E493F5E985098285088343
:10082000740193F5EA850982850883740293F5EBD8
:10083000850982850883740393F5EC850982850810
:1008400083740493F5ED75080A7509207D037F0E06
:1008500012177EEF600D750C00750D607F0E121B78
:1008600058800A9000607410F0A374FAF0750809BB
:100870007509707D037F1C12177EEF6008850837AD
:100880008509388005E4F537F5381211B375080984
:100890007509607D037F0412177EEF600D750C00F3
:1008A000750D707F04121B58800F9000707401F05A
:1008B000A37408F0E4A3F0A3F07508097509E07DBE
:1008C000037F1012177EEF601F85098285088374ED
:1008D0000193FFE4934F601085083985093A7D0440
:1008E0007F0412177E8F3322E4F539F53AF533226F
:101C0A0043AE0175A43B43AC0A43AD0A43F6D04345
:061C1A00EE0143F201227D
:101ACC00E5F630E41EE5AF20E30D90001EE0D39464
:101ADC0001501075A5192290001FE06006E4F5A4D2
:041AEC0075A43B2280
:1019AF00E557D39407501690001FE004F0E0B405FC
:1019BF000643F6107401F0E490001EF02290001E12
:1019CF00E004F0E0B4500653F6EF7402F0E4900038
:0319DF001FF022D4
:03000000021D13CB
:0C1D1300787FE4F6D8FD75815902139921
:101A8200D083D082F8E4937012740193700DA3A3F3
:101A920093F8740193F5828883E473740293686007
:061AA200EFA3A3A380DF07
:00000001FF
